{
  "contractName": "Account",
  "abi": [
    {
      "constant": true,
      "inputs": [],
      "name": "owner",
      "outputs": [
        {
          "name": "",
          "type": "address"
        }
      ],
      "payable": false,
      "stateMutability": "view",
      "type": "function"
    },
    {
      "inputs": [
        {
          "name": "_owner",
          "type": "address"
        }
      ],
      "payable": false,
      "stateMutability": "nonpayable",
      "type": "constructor"
    },
    {
      "payable": true,
      "stateMutability": "payable",
      "type": "fallback"
    },
    {
      "constant": false,
      "inputs": [
        {
          "name": "_owner",
          "type": "address"
        }
      ],
      "name": "setOwner",
      "outputs": [],
      "payable": false,
      "stateMutability": "nonpayable",
      "type": "function"
    },
    {
      "constant": false,
      "inputs": [
        {
          "name": "recipient",
          "type": "address"
        }
      ],
      "name": "destroy",
      "outputs": [],
      "payable": false,
      "stateMutability": "nonpayable",
      "type": "function"
    }
  ],
  "bytecode": "0x608060405234801561001057600080fd5b506040516020806101f48339810180604052602081101561003057600080fd5b505160008054600160a060020a03909216600160a060020a0319909216919091179055610192806100626000396000f3fe6080604052600436106100555763ffffffff7c0100000000000000000000000000000000000000000000000000000000600035041662f55d9d811461005757806313af40351461008a5780638da5cb5b146100bd575b005b34801561006357600080fd5b506100556004803603602081101561007a57600080fd5b5035600160a060020a03166100ee565b34801561009657600080fd5b50610055600480360360208110156100ad57600080fd5b5035600160a060020a0316610111565b3480156100c957600080fd5b506100d2610157565b60408051600160a060020a039092168252519081900360200190f35b600054600160a060020a0316331461010557600080fd5b80600160a060020a0316ff5b600054600160a060020a0316331461012857600080fd5b6000805473ffffffffffffffffffffffffffffffffffffffff1916600160a060020a0392909216919091179055565b600054600160a060020a03168156fea165627a7a72305820285035da0ae2651c8ef5c2749f917d85609d456c217f8f0885e0f90574acd5780029",
  "source": "pragma solidity >0.4.99 <0.6.0;\n\ncontract Account {\n  address public owner;\n\n  constructor(address payable _owner) public {\n    owner = _owner;\n  }\n\n  function setOwner(address _owner) public {\n    require(msg.sender == owner);\n    owner = _owner;\n  }\n\n  function destroy(address payable recipient) public {\n    require(msg.sender == owner);\n    selfdestruct(recipient);\n  }\n\n  function() payable external {}\n}",
  "sourcePath": "/Users/kseniya/Documents/coding/create2/contracts/Account.sol",
  "compiler": {
    "name": "solc",
    "version": "0.5.0-nightly.2018.11.5+commit.88aee34c.Emscripten.clang"
  },
  "schemaVersion": "3.0.3",
  "updatedAt": "2019-03-22T18:03:45.767Z",
  "devdoc": {
    "methods": {}
  },
  "userdoc": {
    "methods": {}
  }
}