{
  "contractName": "Child",
  "abi": [
    {
      "constant": false,
      "inputs": [],
      "name": "unpause",
      "outputs": [],
      "payable": false,
      "stateMutability": "nonpayable",
      "type": "function"
    },
    {
      "constant": true,
      "inputs": [
        {
          "name": "account",
          "type": "address"
        }
      ],
      "name": "isPauser",
      "outputs": [
        {
          "name": "",
          "type": "bool"
        }
      ],
      "payable": false,
      "stateMutability": "view",
      "type": "function"
    },
    {
      "constant": true,
      "inputs": [],
      "name": "paused",
      "outputs": [
        {
          "name": "",
          "type": "bool"
        }
      ],
      "payable": false,
      "stateMutability": "view",
      "type": "function"
    },
    {
      "constant": false,
      "inputs": [],
      "name": "renouncePauser",
      "outputs": [],
      "payable": false,
      "stateMutability": "nonpayable",
      "type": "function"
    },
    {
      "constant": true,
      "inputs": [],
      "name": "registry",
      "outputs": [
        {
          "name": "",
          "type": "address"
        }
      ],
      "payable": false,
      "stateMutability": "view",
      "type": "function"
    },
    {
      "constant": false,
      "inputs": [
        {
          "name": "account",
          "type": "address"
        }
      ],
      "name": "addPauser",
      "outputs": [],
      "payable": false,
      "stateMutability": "nonpayable",
      "type": "function"
    },
    {
      "constant": false,
      "inputs": [],
      "name": "pause",
      "outputs": [],
      "payable": false,
      "stateMutability": "nonpayable",
      "type": "function"
    },
    {
      "constant": true,
      "inputs": [],
      "name": "member",
      "outputs": [
        {
          "name": "",
          "type": "address"
        }
      ],
      "payable": false,
      "stateMutability": "view",
      "type": "function"
    },
    {
      "inputs": [
        {
          "name": "_member",
          "type": "address"
        },
        {
          "name": "_parent",
          "type": "address"
        },
        {
          "name": "_registry",
          "type": "address"
        }
      ],
      "payable": false,
      "stateMutability": "nonpayable",
      "type": "constructor"
    },
    {
      "anonymous": false,
      "inputs": [
        {
          "indexed": false,
          "name": "account",
          "type": "address"
        }
      ],
      "name": "Paused",
      "type": "event"
    },
    {
      "anonymous": false,
      "inputs": [
        {
          "indexed": false,
          "name": "account",
          "type": "address"
        }
      ],
      "name": "Unpaused",
      "type": "event"
    },
    {
      "anonymous": false,
      "inputs": [
        {
          "indexed": true,
          "name": "account",
          "type": "address"
        }
      ],
      "name": "PauserAdded",
      "type": "event"
    },
    {
      "anonymous": false,
      "inputs": [
        {
          "indexed": true,
          "name": "account",
          "type": "address"
        }
      ],
      "name": "PauserRemoved",
      "type": "event"
    },
    {
      "constant": false,
      "inputs": [
        {
          "name": "_member",
          "type": "address"
        }
      ],
      "name": "setMember",
      "outputs": [],
      "payable": false,
      "stateMutability": "nonpayable",
      "type": "function"
    },
    {
      "constant": false,
      "inputs": [
        {
          "name": "recipient",
          "type": "address"
        }
      ],
      "name": "destroy",
      "outputs": [],
      "payable": false,
      "stateMutability": "nonpayable",
      "type": "function"
    }
  ],
  "bytecode": "0x608060405234801561001057600080fd5b506040516060806107588339810180604052606081101561003057600080fd5b508051602082015160409092015190919061005333640100000000610124810204565b60018054600160a860020a031916610100600160a060020a038616021790556100888264010000000061017381026102801704565b60028054600160a060020a031916600160a060020a038381169190911791829055604080517f0c166a6100000000000000000000000000000000000000000000000000000000815230600482015290519290911691630c166a619160248082019260009290919082900301818387803b15801561010457600080fd5b505af1158015610118573d6000803e3d6000fd5b50505050505050610252565b61013c60008264010000000061047d6101a582021704565b604051600160a060020a038216907f6719d08c1888103bea251a4ed56406bd0c3e69723c8a1686e017e7bbe159b6f890600090a250565b610185336401000000006101fc810204565b151561019057600080fd5b6101a281640100000000610124810204565b50565b600160a060020a03811615156101ba57600080fd5b6101cd828264010000000061021b810204565b156101d757600080fd5b600160a060020a0316600090815260209190915260409020805460ff19166001179055565b6000610215818364010000000061036a61021b82021704565b92915050565b6000600160a060020a038216151561023257600080fd5b50600160a060020a03166000908152602091909152604090205460ff1690565b6104f7806102616000396000f3fe608060405234801561001057600080fd5b50600436106100ba576000357c0100000000000000000000000000000000000000000000000000000000900480637b103999116100835780637b1039991461013957806382dc1ec41461015d5780638456cb5914610183578063923e51d51461018b578063e3f6b544146101b1576100ba565b8062f55d9d146100bf5780633f4ba83a146100e757806346fbf68e146100ef5780635c975abb146101295780636ef8d66d14610131575b600080fd5b6100e5600480360360208110156100d557600080fd5b5035600160a060020a03166101b9565b005b6100e56101e1565b6101156004803603602081101561010557600080fd5b5035600160a060020a0316610245565b604080519115158252519081900360200190f35b61011561025d565b6100e5610266565b610141610271565b60408051600160a060020a039092168252519081900360200190f35b6100e56004803603602081101561017357600080fd5b5035600160a060020a0316610280565b6100e56102a0565b6100e5600480360360208110156101a157600080fd5b5035600160a060020a0316610305565b610141610356565b6001546101009004600160a060020a031633146101d557600080fd5b80600160a060020a0316ff5b6101ea33610245565b15156101f557600080fd5b60015460ff16151561020657600080fd5b6001805460ff191690556040805133815290517f5db9ee0a495bf2e6ff9c91a7834c1ba4fdd244a5e8aa4e537bd38aeae4b073aa9181900360200190a1565b6000610257818363ffffffff61036a16565b92915050565b60015460ff1690565b61026f336103a1565b565b600254600160a060020a031681565b61028933610245565b151561029457600080fd5b61029d816103e9565b50565b6102a933610245565b15156102b457600080fd5b60015460ff16156102c457600080fd5b6001805460ff1916811790556040805133815290517f62e78cea01bee320cd4e420270b5ea74000d11b0c9f74754ebdbfc544b05a2589181900360200190a1565b6001546101009004600160a060020a0316331461032157600080fd5b60018054600160a060020a039092166101000274ffffffffffffffffffffffffffffffffffffffff0019909216919091179055565b6001546101009004600160a060020a031681565b6000600160a060020a038216151561038157600080fd5b50600160a060020a03166000908152602091909152604090205460ff1690565b6103b260008263ffffffff61043116565b604051600160a060020a038216907fcd265ebaf09df2871cc7bd4133404a235ba12eff2041bb89d9c714a2621c7c7e90600090a250565b6103fa60008263ffffffff61047d16565b604051600160a060020a038216907f6719d08c1888103bea251a4ed56406bd0c3e69723c8a1686e017e7bbe159b6f890600090a250565b600160a060020a038116151561044657600080fd5b610450828261036a565b151561045b57600080fd5b600160a060020a0316600090815260209190915260409020805460ff19169055565b600160a060020a038116151561049257600080fd5b61049c828261036a565b156104a657600080fd5b600160a060020a0316600090815260209190915260409020805460ff1916600117905556fea165627a7a723058206daa5d31f81c710832535f1c88ec78b05285864fd96d025e5be33f97882c20460029",
  "source": "pragma solidity >0.4.99 <0.6.0;\n\nimport \"openzeppelin-solidity/contracts/lifecycle/Pausable.sol\";\nimport \"./Registry.sol\";\n\ncontract Child is Pausable {\n  address public member;\n  Registry public registry;\n\n  // sets parent as pauser\n  // adds this Child address to registry\n  constructor(address payable _member, address _parent, address _registry) public {\n    member = address(_member);\n    PauserRole.addPauser(address(_parent));\n    registry = Registry(_registry);\n    registry.setChildAddress(address(this));\n  }\n\n  function setMember(address _member) public {\n    require(msg.sender == member);\n    member = _member;\n  }\n\n  function destroy(address payable recipient) public {\n    require(msg.sender == member);\n    selfdestruct(recipient);\n  }\n\n}",
  "sourcePath": "/Users/kseniya/Documents/coding/create2/contracts/Child.sol",
  "compiler": {
    "name": "solc",
    "version": "0.5.2+commit.1df8f40c.Emscripten.clang"
  },
  "schemaVersion": "3.0.3",
  "updatedAt": "2019-03-29T21:36:44.356Z",
  "devdoc": {
    "methods": {
      "pause()": {
        "details": "called by the owner to pause, triggers stopped state"
      },
      "paused()": {
        "return": "true if the contract is paused, false otherwise."
      },
      "unpause()": {
        "details": "called by the owner to unpause, returns to normal state"
      }
    }
  },
  "userdoc": {
    "methods": {}
  }
}