{
  "contractName": "DAO",
  "abi": [
    {
      "constant": false,
      "inputs": [],
      "name": "unpause",
      "outputs": [],
      "payable": false,
      "stateMutability": "nonpayable",
      "type": "function"
    },
    {
      "constant": true,
      "inputs": [
        {
          "name": "account",
          "type": "address"
        }
      ],
      "name": "isPauser",
      "outputs": [
        {
          "name": "",
          "type": "bool"
        }
      ],
      "payable": false,
      "stateMutability": "view",
      "type": "function"
    },
    {
      "constant": true,
      "inputs": [],
      "name": "paused",
      "outputs": [
        {
          "name": "",
          "type": "bool"
        }
      ],
      "payable": false,
      "stateMutability": "view",
      "type": "function"
    },
    {
      "constant": false,
      "inputs": [],
      "name": "renouncePauser",
      "outputs": [],
      "payable": false,
      "stateMutability": "nonpayable",
      "type": "function"
    },
    {
      "constant": false,
      "inputs": [
        {
          "name": "account",
          "type": "address"
        }
      ],
      "name": "addPauser",
      "outputs": [],
      "payable": false,
      "stateMutability": "nonpayable",
      "type": "function"
    },
    {
      "constant": false,
      "inputs": [],
      "name": "pause",
      "outputs": [],
      "payable": false,
      "stateMutability": "nonpayable",
      "type": "function"
    },
    {
      "constant": true,
      "inputs": [],
      "name": "masterRegistry",
      "outputs": [
        {
          "name": "",
          "type": "address"
        }
      ],
      "payable": false,
      "stateMutability": "view",
      "type": "function"
    },
    {
      "constant": true,
      "inputs": [],
      "name": "member",
      "outputs": [
        {
          "name": "",
          "type": "address"
        }
      ],
      "payable": false,
      "stateMutability": "view",
      "type": "function"
    },
    {
      "constant": true,
      "inputs": [],
      "name": "master",
      "outputs": [
        {
          "name": "",
          "type": "address"
        }
      ],
      "payable": false,
      "stateMutability": "view",
      "type": "function"
    },
    {
      "inputs": [
        {
          "name": "_member",
          "type": "address"
        },
        {
          "name": "_account",
          "type": "address"
        }
      ],
      "payable": false,
      "stateMutability": "nonpayable",
      "type": "constructor"
    },
    {
      "anonymous": false,
      "inputs": [
        {
          "indexed": false,
          "name": "account",
          "type": "address"
        }
      ],
      "name": "Paused",
      "type": "event"
    },
    {
      "anonymous": false,
      "inputs": [
        {
          "indexed": false,
          "name": "account",
          "type": "address"
        }
      ],
      "name": "Unpaused",
      "type": "event"
    },
    {
      "anonymous": false,
      "inputs": [
        {
          "indexed": true,
          "name": "account",
          "type": "address"
        }
      ],
      "name": "PauserAdded",
      "type": "event"
    },
    {
      "anonymous": false,
      "inputs": [
        {
          "indexed": true,
          "name": "account",
          "type": "address"
        }
      ],
      "name": "PauserRemoved",
      "type": "event"
    },
    {
      "constant": false,
      "inputs": [
        {
          "name": "_member",
          "type": "address"
        }
      ],
      "name": "setMember",
      "outputs": [],
      "payable": false,
      "stateMutability": "nonpayable",
      "type": "function"
    },
    {
      "constant": false,
      "inputs": [
        {
          "name": "recipient",
          "type": "address"
        }
      ],
      "name": "destroy",
      "outputs": [],
      "payable": false,
      "stateMutability": "nonpayable",
      "type": "function"
    }
  ],
  "bytecode": "0x608060405234801561001057600080fd5b506040516040806107798339810180604052604081101561003057600080fd5b50805160209091015161004b33640100000000610123810204565b60018054600160a860020a031916610100600160a060020a03858116919091029190911790915560028054600160a060020a03191691831691909117905561009f8164010000000061017281026102841704565b600354604080517f965afa890000000000000000000000000000000000000000000000000000000081523060048201529051600160a060020a039092169163965afa899160248082019260009290919082900301818387803b15801561010457600080fd5b505af1158015610118573d6000803e3d6000fd5b505050505050610251565b61013b60008264010000000061049f6101a482021704565b604051600160a060020a038216907f6719d08c1888103bea251a4ed56406bd0c3e69723c8a1686e017e7bbe159b6f890600090a250565b610184336401000000006101fb810204565b151561018f57600080fd5b6101a181640100000000610123810204565b50565b600160a060020a03811615156101b957600080fd5b6101cc828264010000000061021a810204565b156101d657600080fd5b600160a060020a0316600090815260209190915260409020805460ff19166001179055565b6000610214818364010000000061038c61021a82021704565b92915050565b6000600160a060020a038216151561023157600080fd5b50600160a060020a03166000908152602091909152604090205460ff1690565b610519806102606000396000f3fe608060405234801561001057600080fd5b50600436106100c5576000357c01000000000000000000000000000000000000000000000000000000009004806382dc1ec41161008e57806382dc1ec4146101445780638456cb591461016a578063923e51d514610172578063b9f688cc14610198578063e3f6b544146101bc578063ee97f7f3146101c4576100c5565b8062f55d9d146100ca5780633f4ba83a146100f257806346fbf68e146100fa5780635c975abb146101345780636ef8d66d1461013c575b600080fd5b6100f0600480360360208110156100e057600080fd5b5035600160a060020a03166101cc565b005b6100f06101f4565b6101206004803603602081101561011057600080fd5b5035600160a060020a0316610258565b604080519115158252519081900360200190f35b610120610270565b6100f0610279565b6100f06004803603602081101561015a57600080fd5b5035600160a060020a0316610284565b6100f06102a4565b6100f06004803603602081101561018857600080fd5b5035600160a060020a0316610309565b6101a061035a565b60408051600160a060020a039092168252519081900360200190f35b6101a0610369565b6101a061037d565b6001546101009004600160a060020a031633146101e857600080fd5b80600160a060020a0316ff5b6101fd33610258565b151561020857600080fd5b60015460ff16151561021957600080fd5b6001805460ff191690556040805133815290517f5db9ee0a495bf2e6ff9c91a7834c1ba4fdd244a5e8aa4e537bd38aeae4b073aa9181900360200190a1565b600061026a818363ffffffff61038c16565b92915050565b60015460ff1690565b610282336103c3565b565b61028d33610258565b151561029857600080fd5b6102a18161040b565b50565b6102ad33610258565b15156102b857600080fd5b60015460ff16156102c857600080fd5b6001805460ff1916811790556040805133815290517f62e78cea01bee320cd4e420270b5ea74000d11b0c9f74754ebdbfc544b05a2589181900360200190a1565b6001546101009004600160a060020a0316331461032557600080fd5b60018054600160a060020a039092166101000274ffffffffffffffffffffffffffffffffffffffff0019909216919091179055565b600354600160a060020a031681565b6001546101009004600160a060020a031681565b600254600160a060020a031681565b6000600160a060020a03821615156103a357600080fd5b50600160a060020a03166000908152602091909152604090205460ff1690565b6103d460008263ffffffff61045316565b604051600160a060020a038216907fcd265ebaf09df2871cc7bd4133404a235ba12eff2041bb89d9c714a2621c7c7e90600090a250565b61041c60008263ffffffff61049f16565b604051600160a060020a038216907f6719d08c1888103bea251a4ed56406bd0c3e69723c8a1686e017e7bbe159b6f890600090a250565b600160a060020a038116151561046857600080fd5b610472828261038c565b151561047d57600080fd5b600160a060020a0316600090815260209190915260409020805460ff19169055565b600160a060020a03811615156104b457600080fd5b6104be828261038c565b156104c857600080fd5b600160a060020a0316600090815260209190915260409020805460ff1916600117905556fea165627a7a723058202073c367a97ca3b2d93ab3029a70463b4fa8596beadd86a5aa753c4713ef6ca30029",
  "source": "pragma solidity >0.4.99 <0.6.0;\n\nimport \"openzeppelin-solidity/contracts/lifecycle/Pausable.sol\";\nimport \"./MasterRegistry.sol\";\n\ncontract DAO is Pausable {\n  address public member;\n  address public master;\n  MasterRegistry public masterRegistry;\n\n  constructor(address payable _member, address _account) public {\n    member = address(_member);\n    master = address(_account);\n    PauserRole.addPauser(address(_account));\n    masterRegistry.setDAOAddress(address(this));\n  }\n\n  function setMember(address _member) public {\n    require(msg.sender == member);\n    member = _member;\n  }\n\n  function destroy(address payable recipient) public {\n    require(msg.sender == member);\n    selfdestruct(recipient);\n  }\n}",
  "sourcePath": "/Users/kseniya/Documents/coding/create2/contracts/DAO.sol",
  "compiler": {
    "name": "solc",
    "version": "0.5.2+commit.1df8f40c.Emscripten.clang"
  },
  "schemaVersion": "3.0.3",
  "updatedAt": "2019-03-29T05:16:17.292Z",
  "devdoc": {
    "methods": {
      "pause()": {
        "details": "called by the owner to pause, triggers stopped state"
      },
      "paused()": {
        "return": "true if the contract is paused, false otherwise."
      },
      "unpause()": {
        "details": "called by the owner to unpause, returns to normal state"
      }
    }
  },
  "userdoc": {
    "methods": {}
  }
}