{
  "contractName": "MasterRegistry",
  "abi": [
    {
      "constant": true,
      "inputs": [],
      "name": "multiSig",
      "outputs": [
        {
          "name": "",
          "type": "address"
        }
      ],
      "payable": false,
      "stateMutability": "view",
      "type": "function"
    },
    {
      "constant": true,
      "inputs": [],
      "name": "dao",
      "outputs": [
        {
          "name": "",
          "type": "address"
        }
      ],
      "payable": false,
      "stateMutability": "view",
      "type": "function"
    },
    {
      "inputs": [],
      "payable": false,
      "stateMutability": "nonpayable",
      "type": "constructor"
    },
    {
      "constant": false,
      "inputs": [
        {
          "name": "_address",
          "type": "address"
        }
      ],
      "name": "setMultiSigAddress",
      "outputs": [],
      "payable": false,
      "stateMutability": "nonpayable",
      "type": "function"
    },
    {
      "constant": false,
      "inputs": [
        {
          "name": "_address",
          "type": "address"
        }
      ],
      "name": "setDAOAddress",
      "outputs": [],
      "payable": false,
      "stateMutability": "nonpayable",
      "type": "function"
    },
    {
      "constant": true,
      "inputs": [],
      "name": "getMultiSigAddress",
      "outputs": [
        {
          "name": "",
          "type": "address"
        }
      ],
      "payable": false,
      "stateMutability": "view",
      "type": "function"
    },
    {
      "constant": true,
      "inputs": [],
      "name": "getDAOAddress",
      "outputs": [
        {
          "name": "",
          "type": "address"
        }
      ],
      "payable": false,
      "stateMutability": "view",
      "type": "function"
    }
  ],
  "bytecode": "0x608060405234801561001057600080fd5b506101d3806100206000396000f3fe608060405234801561001057600080fd5b506004361061007e577c01000000000000000000000000000000000000000000000000000000006000350463077f2cfc811461008357806336e0004a146100ab5780634162169f146100cf578063965afa89146100d7578063ad0a5b86146100fd578063ad9b44cd14610105575b600080fd5b6100a96004803603602081101561009957600080fd5b5035600160a060020a031661010d565b005b6100b361013c565b60408051600160a060020a039092168252519081900360200190f35b6100b361014b565b6100a9600480360360208110156100ed57600080fd5b5035600160a060020a031661015a565b6100b3610189565b6100b3610198565b6000805473ffffffffffffffffffffffffffffffffffffffff1916600160a060020a0392909216919091179055565b600054600160a060020a031681565b600154600160a060020a031681565b6001805473ffffffffffffffffffffffffffffffffffffffff1916600160a060020a0392909216919091179055565b600054600160a060020a031690565b600154600160a060020a03169056fea165627a7a72305820eb1b039c5a9a9df015a6b5d796a7af28ea6a3f620b1b26c0aa65a366738567a10029",
  "source": "pragma solidity ^0.5.0;\n\ncontract MasterRegistry {\n\n  address public multiSig;\n  address public dao;\n\n  constructor () public {}\n\n  function setMultiSigAddress(address _address) public {\n    multiSig = _address;\n  }\n\n  function setDAOAddress(address _address) public {\n    dao = _address;\n  }\n\n  function getMultiSigAddress() public view returns (address) {\n    return multiSig;\n  }\n\n  function getDAOAddress() public view returns (address) {\n    return dao;\n  }\n\n}",
  "sourcePath": "/Users/kseniya/Documents/coding/create2/contracts/MasterRegistry.sol",
  "compiler": {
    "name": "solc",
    "version": "0.5.2+commit.1df8f40c.Emscripten.clang"
  },
  "schemaVersion": "3.0.3",
  "updatedAt": "2019-03-29T05:16:17.289Z",
  "devdoc": {
    "methods": {}
  },
  "userdoc": {
    "methods": {}
  }
}