{
  "contractName": "Parent",
  "abi": [
    {
      "constant": true,
      "inputs": [],
      "name": "child",
      "outputs": [
        {
          "name": "",
          "type": "address"
        }
      ],
      "payable": false,
      "stateMutability": "view",
      "type": "function"
    },
    {
      "constant": true,
      "inputs": [],
      "name": "registry",
      "outputs": [
        {
          "name": "",
          "type": "address"
        }
      ],
      "payable": false,
      "stateMutability": "view",
      "type": "function"
    },
    {
      "constant": true,
      "inputs": [],
      "name": "owner",
      "outputs": [
        {
          "name": "",
          "type": "address"
        }
      ],
      "payable": false,
      "stateMutability": "view",
      "type": "function"
    },
    {
      "inputs": [
        {
          "name": "_owner",
          "type": "address"
        },
        {
          "name": "_registry",
          "type": "address"
        }
      ],
      "payable": false,
      "stateMutability": "nonpayable",
      "type": "constructor"
    },
    {
      "payable": true,
      "stateMutability": "payable",
      "type": "fallback"
    },
    {
      "anonymous": false,
      "inputs": [],
      "name": "Pause",
      "type": "event"
    },
    {
      "anonymous": false,
      "inputs": [],
      "name": "Unpause",
      "type": "event"
    },
    {
      "constant": false,
      "inputs": [
        {
          "name": "_owner",
          "type": "address"
        }
      ],
      "name": "setOwner",
      "outputs": [],
      "payable": false,
      "stateMutability": "nonpayable",
      "type": "function"
    },
    {
      "constant": false,
      "inputs": [
        {
          "name": "recipient",
          "type": "address"
        }
      ],
      "name": "destroy",
      "outputs": [],
      "payable": false,
      "stateMutability": "nonpayable",
      "type": "function"
    },
    {
      "constant": false,
      "inputs": [],
      "name": "pause",
      "outputs": [
        {
          "name": "",
          "type": "bool"
        }
      ],
      "payable": false,
      "stateMutability": "nonpayable",
      "type": "function"
    },
    {
      "constant": false,
      "inputs": [],
      "name": "unpause",
      "outputs": [
        {
          "name": "",
          "type": "bool"
        }
      ],
      "payable": false,
      "stateMutability": "nonpayable",
      "type": "function"
    }
  ],
  "bytecode": "0x608060405234801561001057600080fd5b506040516040806105478339810180604052604081101561003057600080fd5b50805160209091015160008054600160a060020a03938416600160a060020a031991821617909155600280549390921692169190911790556104d0806100776000396000f3fe6080604052600436106100735760003560e060020a900480633f4ba83a116100525780633f4ba83a1461010c5780637b103999146101355780638456cb591461014a5780638da5cb5b1461015f57610073565b8062f55d9d1461007557806313af4035146100a8578063237b5e96146100db575b005b34801561008157600080fd5b506100736004803603602081101561009857600080fd5b5035600160a060020a0316610174565b3480156100b457600080fd5b50610073600480360360208110156100cb57600080fd5b5035600160a060020a0316610197565b3480156100e757600080fd5b506100f06101dd565b60408051600160a060020a039092168252519081900360200190f35b34801561011857600080fd5b506101216101ec565b604080519115158252519081900360200190f35b34801561014157600080fd5b506100f0610339565b34801561015657600080fd5b50610121610348565b34801561016b57600080fd5b506100f0610495565b600054600160a060020a0316331461018b57600080fd5b80600160a060020a0316ff5b600054600160a060020a031633146101ae57600080fd5b6000805473ffffffffffffffffffffffffffffffffffffffff1916600160a060020a0392909216919091179055565b600154600160a060020a031681565b600080600260009054906101000a9004600160a060020a0316600160a060020a031663bcb1c3a96040518163ffffffff1660e060020a02815260040160206040518083038186803b15801561024057600080fd5b505afa158015610254573d6000803e3d6000fd5b505050506040513d602081101561026a57600080fd5b50516001805473ffffffffffffffffffffffffffffffffffffffff1916600160a060020a038084169190911791829055604080517f3f4ba83a0000000000000000000000000000000000000000000000000000000081529051939450911691633f4ba83a9160048082019260009290919082900301818387803b1580156102f057600080fd5b505af1158015610304573d6000803e3d6000fd5b50506040517f7805862f689e2f13df9f062ff482ad3ad112aca9e0847911ed832e158c525b33925060009150a1600191505090565b600254600160a060020a031681565b600080600260009054906101000a9004600160a060020a0316600160a060020a031663bcb1c3a96040518163ffffffff1660e060020a02815260040160206040518083038186803b15801561039c57600080fd5b505afa1580156103b0573d6000803e3d6000fd5b505050506040513d60208110156103c657600080fd5b50516001805473ffffffffffffffffffffffffffffffffffffffff1916600160a060020a038084169190911791829055604080517f8456cb590000000000000000000000000000000000000000000000000000000081529051939450911691638456cb599160048082019260009290919082900301818387803b15801561044c57600080fd5b505af1158015610460573d6000803e3d6000fd5b50506040517f6985a02210a168e66602d3235cb6db0e70f92b3ba4d376a33c0f3d9434bff625925060009150a1600191505090565b600054600160a060020a03168156fea165627a7a72305820c765f08880aa07c950e7038a6e25cbf88204387025eb173370b997faaa6c73d20029",
  "source": "pragma solidity >0.4.99 <0.6.0;\n\nimport \"./Child.sol\";\nimport \"./Registry.sol\";\n\ncontract Parent {\n\n  event Pause();\n  event Unpause();\n\n  address public owner;\n  Child public child;\n  Registry public registry;\n\n  constructor(address payable _owner, address _registry) public {\n    owner = _owner;\n    registry = Registry(_registry);\n  }\n\n  function setOwner(address _owner) public {\n    require(msg.sender == owner);\n    owner = _owner;\n  }\n\n  function destroy(address payable recipient) public {\n    require(msg.sender == owner);\n    selfdestruct(recipient);\n  }\n\n  // pauses child contract\n  function pause() public returns (bool)\n  {\n    address addr = registry.getChildAddress();\n    child = Child(addr);\n    child.pause();\n    emit Pause();\n    return true;\n  }\n\n  // unpauses child contract\n  function unpause() public returns (bool)\n  {\n    address addr = registry.getChildAddress();\n    child = Child(addr);\n    child.unpause();\n    emit Unpause();\n    return true;\n  }\n\n  function() payable external {}\n}",
  "sourcePath": "/Users/kseniya/Documents/coding/create2/contracts/Parent.sol",
  "compiler": {
    "name": "solc",
    "version": "0.5.2+commit.1df8f40c.Emscripten.clang"
  },
  "schemaVersion": "3.0.3",
  "updatedAt": "2019-03-29T21:36:44.358Z",
  "devdoc": {
    "methods": {}
  },
  "userdoc": {
    "methods": {}
  }
}