{
  "contractName": "Registry",
  "abi": [
    {
      "constant": true,
      "inputs": [],
      "name": "child",
      "outputs": [
        {
          "name": "",
          "type": "address"
        }
      ],
      "payable": false,
      "stateMutability": "view",
      "type": "function"
    },
    {
      "inputs": [],
      "payable": false,
      "stateMutability": "nonpayable",
      "type": "constructor"
    },
    {
      "constant": false,
      "inputs": [
        {
          "name": "_address",
          "type": "address"
        }
      ],
      "name": "setChildAddress",
      "outputs": [],
      "payable": false,
      "stateMutability": "nonpayable",
      "type": "function"
    },
    {
      "constant": true,
      "inputs": [],
      "name": "getChildAddress",
      "outputs": [
        {
          "name": "",
          "type": "address"
        }
      ],
      "payable": false,
      "stateMutability": "view",
      "type": "function"
    }
  ],
  "bytecode": "0x608060405234801561001057600080fd5b50610170806100206000396000f3fe608060405234801561001057600080fd5b506004361061005d577c010000000000000000000000000000000000000000000000000000000060003504630c166a618114610062578063237b5e9614610097578063bcb1c3a9146100c8575b600080fd5b6100956004803603602081101561007857600080fd5b503573ffffffffffffffffffffffffffffffffffffffff166100d0565b005b61009f61010c565b6040805173ffffffffffffffffffffffffffffffffffffffff9092168252519081900360200190f35b61009f610128565b6000805473ffffffffffffffffffffffffffffffffffffffff191673ffffffffffffffffffffffffffffffffffffffff92909216919091179055565b60005473ffffffffffffffffffffffffffffffffffffffff1681565b60005473ffffffffffffffffffffffffffffffffffffffff169056fea165627a7a72305820c1631382937a605f3fe0db456bfbfc0da687bbcd6973992d463c1ad1b7f3b1860029",
  "source": "pragma solidity ^0.5.0;\n\ncontract Registry {\n\n  address public child;\n\n  constructor () public {}\n\n  function setChildAddress(address _address) public {\n    child = _address;\n  }\n\n  function getChildAddress() public view returns (address) {\n    return child;\n  }\n\n}",
  "sourcePath": "/Users/kseniya/Documents/coding/create2/contracts/Registry.sol",
  "compiler": {
    "name": "solc",
    "version": "0.5.2+commit.1df8f40c.Emscripten.clang"
  },
  "schemaVersion": "3.0.3",
  "updatedAt": "2019-03-29T21:36:44.358Z",
  "devdoc": {
    "methods": {}
  },
  "userdoc": {
    "methods": {}
  }
}